:020000040800F2
:10000000400600200501000885350008513200082F
:1000100081350008E5090008D13C00080000000017
:10002000000000000000000000000000B5350008DE
:10003000250A00080000000089350008B7350008CF
:100040001F0100081F0100081F0100081F01000810
:100050001F0100081F0100081F0100081F01000800
:100060001F0100081F0100081F0100081F010008F0
:100070001F0100081F010008E90900081F0100080E
:100080001F0100081F0100081F0100081F010008D0
:100090001F0100081F0100081F0100081F010008C0
:1000A0001F0100081F0100081F0100081F010008B0
:1000B00045360008553600081F0100081F010008DA
:1000C0001F0100081F0100081F0100081F01000890
:1000D0001F010008C13C00081F0100081F010008A3
:1000E0001F0100081F0100081F010008DFF810D0E1
:1000F00000F0B0FB00480047F5450008AFF3008072
:10010000400600200648804706480047FEE7FEE715
:10011000FEE7FEE7FEE7FEE7FEE7FEE7FEE7FEE7B7
:1001200043360008ED000008202A04DB203A21FABB
:1001300002F00021704721FA02F3D040C2F1200200
:100140009140084319467047D2B201E000F8012BF4
:10015000491EFBD270470022F6E710B513460A4647
:1001600004461946FFF7F0FF204610BDF0B480EAC0
:100170000102D40F4200B2EB410F02D20246084600
:1001800011464A0042D0C30DDDB2C1F3C752AD1AC9
:10019000202D35DAC1F3160141F4000204B15242B8
:1001A000C5F1200602FA06F12A411044B3EBD05FF4
:1001B00023D0C4B1012DA0EBC35009DCF0BC4FF03B
:1001C000004202EAC352DBB200F5000000F09FBA21
:1001D000400000F1807000EBC350A0F1807040EA55
:1001E000D170490009E0490841EAC071A0EBC35051
:1001F00000F50000400800EBC350F0BC00F07EBAF0
:100200006142012202EB4101001BF6E7F0BC70479E
:1002100081F00041AAE780F00040A7E780EA0102F0
:1002200010B502F00043400022D04A001FD0010E5A
:1002300001EB1261C0F35600C2F3560240F4000015
:1002400042F40002A0FB022000047F39140400D015
:10025000401C50EA124001D44000491EC2B20C06B4
:1002600004EBD010401C4008802A02D003E000209C
:1002700010BD20F00100002900DA0020184310BD55
:100280002DE9FE4F804681EA0300C00F0C46009026
:1002900021F0004123F00045B8EB0200A94105D24E
:1002A0004046214690461C460B46024623F000403D
:1002B000104347D0270DC7F30A00C3F30A51029039
:1002C000401A019040286BDAC3F3130040F4801BFE
:1002D0000098924620B10023D2EB030A63EB0B0B8C
:1002E00001985946C0F14002504600F0E6F9064632
:1002F0000D4650465946019A00F0EEF910EB080001
:100300006141002487EA115284EAE7731A4340D01E
:10031000009A62B3019A012A4FEA075215DC001BCA
:1003200061EB02014FF0004202EA0752CDE90042C0
:10033000001C41F5801132462B4600F025FA03B02F
:10034000BDE8F08F40462146F9E7001B61EB020152
:10035000001C41F5801300185B412018A2F500171E
:1003600047EB030140EAD570B6196D4111E06D0805
:100370004FEA360645EAC0754FEA0752001B61EBAB
:100380000201001C41F5801149084FEA30000019B4
:10039000514132462B4603B0BDE8F04F00F0E5B9BD
:1003A0000098012240000023D0EB020263EBE073CF
:1003B000009821464FEAE074B8EB000061EB0401BD
:1003C000E9E783F000435BE781F0004158E72DE95E
:1003D000FE4F81EA030404F0004421F00041009440
:1003E0004FF0000B23F0004350EA01045ED052EAC4
:1003F00003045BD0C3F30A54C1F30A552C44A4F29E
:10040000F3340194A0FB0254C1F3130141F48011B1
:10041000C3F3130343F4801301FB024400FB034EB8
:10042000840A970A44EA815447EA8357A4FB076881
:1004300002958D0A05FB07854FEA932C04FB0C54AB
:100440002705029D4FEA065847EA1637B5EB08051F
:100450006EEB070C870E920E47EA811742EA831271
:10046000A7FB0201B6EB0B0164EB00042B0D43EA82
:100470000C335E1844EB1C50DA465146E7FB020190
:10048000C5F313044FEA0B3343EA14534FEA043223
:10049000019C43EA0603A4F10C040294009CCDE9FC
:1004A00000B400F071F903B0BDE8F08F0020014600
:1004B000F9E72DE9F04D81EA030404F0004B21F047
:1004C000004514464FF0000A23F0004150EA0502AF
:1004D00020D054EA01021DD0C5F30A570246C5F3E5
:1004E0001303C1F31300C1F30A5640F4801543F41B
:1004F0008013A7EB0608101BD64608F2FD3873EBF5
:10050000050002D308F1010801E092185B41B8F13F
:10051000000F03DA00200146BDE8F08D00204FF403
:100520008011064684460EE0171B73EB050705D3C2
:10053000121B63EB050306434CEA010C49084FEA22
:10054000300092185B4150EA0107EDD152EA0300F6
:1005500012D082EA040083EA0501084305D0101B8B
:10056000AB4106D20122002306E000224FF00043F7
:1005700002E06FF0010253101AEB06004CEB085139
:1005800010EB0A0041EB0B01BDE8F04D00F0EDB8B7
:10059000C10F80EAE0700844CA079623002100F0EA
:1005A000B6B800F0004220F00040C10DC0F31600C4
:1005B00040F400007F2901DA00207047962903DC0F
:1005C000C1F19601C84001E096398840002AF4D074
:1005D0004042704730B5041E71F1000404DB4FF057
:1005E0000044404264EB0101141E73F1000405DB7A
:1005F0001C464FF00043524263EB0403994208BF8C
:10060000904230BD002801DBC0F10040002901DB31
:10061000C1F1004181427047002801DBC0F1004078
:10062000002901DBC1F100418842704730B50B461B
:10063000014600202022012409E021FA02F59D4212
:1006400005D303FA02F5491B04FA02F52844151EE6
:10065000A2F10102F1DC30BD2DE9F05F054600207A
:1006600092469B4688460646814640241BE0284623
:10067000414647462246FFF757FD53465A46C01AA1
:10068000914110D311461846224600F016F82D1A53
:1006900067EB01084F4622460120002100F00DF8CB
:1006A00017EB00094E41201EA4F10104DFDC48468F
:1006B00031462A464346BDE8F09F202A04DB203A13
:1006C00000FA02F1002070479140C2F1200320FAA5
:1006D00003F3194390407047202A06DBCB17203ADA
:1006E00041FA02F043EAE07306E041FA02F3D04037
:1006F000C2F1200291400843194670470029A8BF63
:100700007047401C490008BF20F00100704710B43A
:10071000B0FA80FC00FA0CF050EA010404BF10BCEF
:10072000704749B1CCF1200421FA04F411FA0CF11C
:1007300018BF012121430843A3EB0C01CB1D4FEA55
:1007400000614FEA102042BF002010BC704700EB50
:10075000C35010440029A4BF10BC7047401C49007E
:1007600008BF20F0010010BC704710B5141E73F1D3
:10077000000408DA401C41F1000192185B411A4361
:1007800001D120F0010010BD2DE9F04D92469B46AD
:1007900011B1B1FA81F202E0B0FA80F22032904653
:1007A000FFF78BFF04460F4640EA0A0041EA0B01BF
:1007B00053465A46084313D0114653EA010019D054
:1007C000C8F140025046FFF7AFFC05460E465046C2
:1007D00059464246FFF771FF084305D0012004E067
:1007E00020463946BDE8F08D0020054346EAE07614
:1007F0002C4337430A986305E40AA0EB0800002263
:10080000FD0A44EA47540A3002D500200146E9E7D0
:10081000010510196941DDE9084500196941BDE884
:10082000F04DA2E7C1F30A52C1F3130140F2FF33C6
:1008300041F480119A4202DA00200146704740F2EA
:1008400033439A42A2F2334202DC5242FFF76CBCBD
:10085000FFF733BF064C074D06E0E06840F00103A8
:1008600094E8070098471034AC42F6D3FFF742FCF7
:10087000F44600081447000870B5044600252068B7
:10088000806800F0010018B32068806820F0010043
:100890002168886000F030FF054613E000F02CFF6F
:1008A000401B02280ED92068806800F0010048B182
:1008B000A06A40F01000A062E06A40F00100E0622F
:1008C000012070BD2068806800F001000028E5D19B
:1008D0000020F6E770B505466C6AA06A00F050008B
:1008E000E0B9A06A40F40070A0622068806800F45B
:1008F0006020B0F5602F0DD1207B58B9A06A20F49C
:100900008070A062A06A00F4805018B9A06A40F01C
:100910000100A062204600F0C7F903E0206A016BE5
:100920002846884770BD70B505466C6AA06A40F0DD
:100930004000A062E06A40F00400E062204600F05F
:10094000B5F970BD70B50446656A284600F0ADF98A
:1009500070BD000038B504460025002000902068D6
:10096000806800F0010078BB2068806840F00100DA
:1009700021688860194800681949B0FBF1F00090BF
:1009800002E00098401E009000980028F9D100F085
:10099000B3FE054619E000F0AFFE401B022814D953
:1009A0002068806800F0010078B9A06A40F010006B
:1009B000A062E06A40F00100E06200BF002084F81D
:1009C000240000BF012038BD05E02068806800F0E9
:1009D00001000028DFD00020F5E7000060000020C3
:1009E00040420F0000BFFEE710B5024800F09EFB3A
:1009F00010BD0000FC01002030B590F840500124EB
:100A0000AC40C56B6C60046863604468102C04D112
:100A10000468A2600468E16003E00468A1600468FF
:100A2000E26030BD704772B600BFFEE7F8B504461D
:100A300000260020009000BF94F82400012801D176
:100A40000220F8BD012084F8240000BF2046FFF7F3
:100A500013FF06462046FFF77DFF0646002E69D1AC
:100A6000A06A20F4885040F00200A062022000F04A
:100A70001BFF34490968B1FBF0F04000009002E030
:100A80000098401E009000980028F9D120688068E6
:100A900040F008002168886000F02EFE054616E050
:100AA00000F02AFE401B0A2811D92068806800F057
:100AB000080060B1A06A20F0020040F01000A062BF
:100AC00000BF002084F8240000BF0120B9E720689F
:100AD000806800F008000028E2D12068806840F0BB
:100AE00004002168886000F007FE054616E000F06B
:100AF00003FE401B0A2811D92068806800F004001A
:100B000060B1A06A20F0020040F01000A06200BFB7
:100B1000002084F8240000BF012092E7206880684C
:100B200000F004000028E2D1A06A20F0020040F0AA
:100B30000100A06200BF002084F8240000BF3046FE
:100B40007FE700006000002038B502460023002047
:100B5000009000BF92F82400012801D1022038BD86
:100B6000012082F8240000BF4868072812D21068CC
:100B7000406B0C79641E04EB84051F24AC40A04339
:100B80000D796D1E05EB85050C68AC40204314689B
:100B9000606327E048680D2812D21068006B0C795A
:100BA000E41F04EB84051F24AC40A0430D79ED1F26
:100BB00005EB85050C68AC4020431468206311E008
:100BC0001068C06A0C790D3C04EB84051F24AC400E
:100BD000A0430D790D3D05EB85050C68AC40204325
:100BE0001468E06208680A2812D31068C0680C789C
:100BF0000A3C04EB44050724AC40A0430D780A3DB1
:100C000005EB45058C68AC4020431468E0600FE0BC
:100C1000106800690C7804EB44050724AC40A0433D
:100C20000D7805EB45058C68AC40204314682061C5
:100C30000868102802D00868112827D1174C1068BE
:100C4000A0421ED11068806800F40000F0B910685E
:100C5000806840F400001468A0600868102815D16E
:100C60000F4800680F4CB0FBF4F000EB8000400030
:100C7000009002E00098401E009000980028F9D1F2
:100C800004E0906A40F020009062012300BF002041
:100C900082F8240000BF184661E7000000240140EC
:100CA0006000002040420F0070477047704700000E
:100CB0002DE9F0410446002700250026A84614B976
:100CC0000120BDE8F081A06810B1207D00B100BF17
:100CD000A06A30B90020E06284F82400204600F0C9
:100CE00089F82046FFF7C8FD0746A06A00F010000B
:100CF000002873D1002F71D1A06A20F4885040F0F1
:100D00000200A062E16960680843217B40EA41007B
:100D10000643A068B0F5807F02D0A068012802D108
:100D20004FF4807000E000200543207D012811D1A0
:100D3000207B38B9A069401E4FF4006141EA403081
:100D4000054307E0A06A40F02000A062E06A40F09E
:100D50000100E0622068406820F46940284321686F
:100D600048602068806821490840304321688860D5
:100D7000A068B0F5807F02D0A068012802D14FF4AE
:100D8000807000E00020B0F5807F03D1208A401EF3
:100D90004FEA00582068C06A20F4700040EA08005A
:100DA0002168C8622068806811490840B04208D1B3
:100DB0000020E062A06A20F0020040F00100A06282
:100DC00011E0A06A20F0020040F01000A062E06A8A
:100DD00040F00100E062012705E0FFE7A06A40F073
:100DE0001000A062012738466BE70000FDF7E1FF25
:100DF000FE0E1FFF10B586B004460020029003903F
:100E0000049005902249206888423ED100BF2148C5
:100E1000806940F400701F4988610846806900F4C9
:100E20000070019000BF00BF00BF0846806940F01D
:100E3000040088610846806900F00400019000BF4A
:100E400000BF012002900320039002A9124800F085
:100E5000BDFA12481249086000204860002110487D
:100E600081608021C16049000161890041612021C8
:100E700081610021C16100F027FA08B1FFF7D3FDBD
:100E800000BF07482062446200BF06B010BD0000EA
:100E90000024014000100240000801400800024008
:100EA000980000202DE9F04104460D461646002723
:100EB00057492068884203D056492068884205D1A6
:100EC0005348001D006800F4702000E00020002856
:100ED0007ED100BF94F82400012802D10220BDE891
:100EE000F081012084F8240000BF2046FFF732FD86
:100EF0000746002F6DD1A06A40F60161884340F497
:100F00008070A06243492068884209D14048001D92
:100F1000006800F4702008B9012002E0002000E021
:100F2000012078B1A06A20F48010A0622068406897
:100F300000F4806000B3A06A20F4005040F48050B8
:100F4000A06219E0A06A40F48010A06230492068D5
:100F5000884203D02F492068884205D12C48001DC3
:100F6000006800F4806000E0002028B1A06A20F44E
:100F7000005040F48050A062A06A00F4805020B17C
:100F8000E06A20F00600E06201E00020E06200BFBD
:100F9000002084F8240000BF1F48216A88621F488F
:100FA000216AC8621E48216A08636FF00200216846
:100FB00008602068806840F480702168886022683A
:100FC00002F14C0133462A46206A00F0B1F901E0F3
:100FD0001AE014E02068806800F46020B0F5602F0B
:100FE00006D12068806840F4A000216888600CE089
:100FF0002068806840F480102168886005E000BFA8
:10100000002084F8240000E00127384667E700004C
:101010000024014000280140D508000845090008C7
:10102000270900080146002291F82100022808D073
:101030000420886300BF002081F8200000BF012049
:1010400070470868006820F00E000B681860086898
:10105000006820F001000B68186091F84030012012
:101060009840CB6B5860012081F8210000BF002020
:1010700081F8200000BF1046E2E7000070B504468A
:10108000002594F82100022803D00420A063012544
:1010900048E02068006820F00E00216808602068A1
:1010A000006820F00100216808601F49206888421C
:1010B00001D1012026E01C4914312068884201D169
:1010C00010201FE0184928312068884201D180157E
:1010D00018E015493C312068884201D1801411E0A4
:1010E000114950312068884202D14FF4803009E024
:1010F0000D4964312068884202D14FF4801001E02C
:101100004FF08070084908394860012084F82100B8
:1011100000BF002084F8200000BF606B10B12046A3
:10112000616B8847284670BD0800024070B50446D0
:10113000E06B05682068066894F840100420884039
:101140002840002846D006F00400002842D020683D
:10115000006800F0200028B92068006820F0040032
:101160002168086057492068884201D1042027E09F
:10117000544914312068884201D1402020E051496F
:1011800028312068884201D1001519E04D493C31D1
:101190002068884202D14FF4804011E04949503123
:1011A0002068884202D14FF4802009E0454964312B
:1011B0002068884202D14FF4800001E04FF0806047
:1011C000404908394860E06A00287AD02046E16A40
:1011D000884776E094F84010022088402840A0B369
:1011E00006F0020088B32068006800F0200040B9D3
:1011F0002068006820F00A0021680860012084F857
:10120000210030492068884201D1022028E02D4980
:1012100014312068884201D1202021E02949283159
:101220002068884201D140151AE026493C312068E7
:10123000884202D14FF4005012E022495031206818
:10124000884203D14FF400300AE017E01D496431B1
:101250002068884202D14FF4001001E04FF0007086
:1012600018490839486000BF002084F8200000BFFA
:10127000A06A30B32046A16A884722E094F8401063
:10128000082088402840E0B106F00800C8B1206876
:10129000006820F00E002168086094F840100120DA
:1012A0008840E16B48600120A06384F8210000BF02
:1012B000002084F8200000BF206B10B12046216B75
:1012C000884770BD080002400146002209B901208C
:1012D0007047164B0868C01A1423B0FBF3F0800067
:1012E000086412480838C863022081F821000868A1
:1012F000026843F6F0708243D1E901031843CB68DA
:1013000018430B6918434B6918438B691843CB6921
:10131000184302430868026000208863012081F8B6
:101320002100002081F8200000BFD1E70800024022
:101330002DE9F04104460D4616461F464FF00008C1
:1013400000BF94F82000012802D10220BDE8F081FE
:10135000012084F8200000BF94F8210001282CD13E
:10136000022084F821000020A0632068006820F09B
:101370000100216808603B46324629462046FFF7B7
:101380003BFBE06A30B12068006840F00E00216845
:1013900008600BE02068006820F004002168086005
:1013A0002068006840F00A00216808602068006832
:1013B00040F001002168086006E000BF002084F8CA
:1013C000200000BF4FF002084046BFE72DE9F84774
:1013D0000346002294466EE14FF0010808FA02F439
:1013E000D1F8008008EA0400A0427DD1DFF8DCA239
:1013F000D1F80480A8EB0A09D0453AD014DCB8F142
:10140000030F50D009DCB8F1000F31D0B8F1010F53
:101410001CD0B8F1020F49D120E0B8F1110F18D05B
:10142000B8F1120F42D11EE0B9F5881F25D006DCB5
:10143000B9F5803F20D0B9F5801F37D11AE0B9F552
:10144000001F18D0B9F5041F30D117E0D1F80CC037
:101450002DE0D1F80C8008F1040C28E0D1F80C80C4
:1014600008F1080C23E0D1F80C8008F10C0C1EE008
:1014700000BF00BF00BF00BF00BF00BFD1F80880A1
:10148000B8F1000F02D14FF0040C0BE0D1F8088046
:10149000B8F1010F03D14FF0080C1C6102E04FF0CE
:1014A000080C5C6103E04FF0000C00E000BF00BFDF
:1014B000FF2801D8984601E003F104084646FF28BA
:1014C00002D84FEA820803E0A2F108084FEA880830
:1014D0004746D6F800804FF00F0909FA07F928EAC5
:1014E00009080CFA07F900E088E048EA0908C6F89C
:1014F0000080D1F8048008F08058B8F1805F7DD179
:1015000000BFDFF8CC81D8F8188048F00108DFF878
:10151000C091C9F81880C846D8F8188008F00108AA
:10152000CDF8008000BF00BF4FEAB9384FEA9209FA
:1015300058F829504FEA82784FEA18794FF00F088F
:1015400008FA09F825EA0805DFF88881434502D141
:101550004FF0000816E0DFF88081434502D14FF0DC
:1015600001080FE0DFF87481434502D14FF0020813
:1015700008E0DFF86C81434502D14FF0030801E039
:101580004FF004084FEA82794FEA197908FA09F80E
:1015900048EA0505DFF84C814FEA920948F82950DE
:1015A000D1F8048008F48018B8F5801F0AD1DFF85C
:1015B0003881D8F8008048EA0008DFF82C91C9F893
:1015C000008009E0DFF82081D8F8008028EA0008D0
:1015D000DFF81491C9F80080D1F8048008F40018ED
:1015E000B8F5001F10D1DFF8008108F10408D8F821
:1015F000008048EA0008DFF8F09000E05AE009F1C6
:101600000409C9F800800DE0DFF8DC8008F1040867
:10161000D8F8008028EA0008DFF8CC9009F1040926
:10162000C9F80080D1F8048008F40038B8F5003F0C
:101630000ED1DFF8B480A8F10408D8F8008048EA99
:101640000008DFF8A490A9F10409C9F800800DE0B2
:10165000DFF89480A8F10408D8F8008028EA000890
:10166000DFF88490A9F10409C9F80080D1F804805A
:1016700008F48038B8F5803F0ED1DFF86C80A8F10F
:101680000808D8F8008048EA0008DFF85C90A9F163
:101690000809C9F800800DE0DFF84C80A8F10808BF
:1016A000D8F8008028EA0008DFF83C90A9F1080982
:1016B000C9F80080521CD1F8008028FA02F8B8F16D
:1016C000000F7FF489AEBDE8F8870000000011101C
:1016D0000010024000080140000C014000100140D1
:1016E0000014014008000140080401400AB10161F2
:1016F00001E00B0403617047014800687047000077
:10170000540000200348006803490978084401494F
:1017100008607047540000205C00002010B50848A5
:10172000006840F0100006490860032000F0A8F8A7
:101730000F2000F007F800F02BF8002010BD00008B
:101740000020024070B504460E4800784FF47A71CC
:10175000B1FBF0F00C490968B1FBF0F5284600F048
:101760000FFD08B1012070BD102C07D200222146C8
:10177000501E00F047F80548046001E00120F2E740
:101780000020F0E75C0000206000002058000020EE
:1017900008B500BF1148806940F001000F49886119
:1017A0000846806900F00100009000BF00BF00BF44
:1017B0000846C06940F08050C8610846C06900F022
:1017C0008050009000BF00BF00BF0549486820F06E
:1017D000E06040F00070486000BF08BD00100240AB
:1017E0000000014001460846002809DB00F01F0305
:1017F00001229A4043099B0003F1E023C3F8002132
:1018000000BF70472DE9F05F80460D461646002761
:1018100002F070FA074639462A46334601F00700BF
:10182000C0F1070ABAF1040F02D94FF0040A01E02F
:10183000C0F1070AD14600F1040ABAF1070F02D23B
:101840004FF0000A01E0A0F1030AD4464FF0010A6C
:101850000AFA09FAAAF1010A0AEA020A0AFA0CFAD1
:101860004FF0010B0BFA0CFBABF1010B0BEA030B76
:101870004AEA0B042146404602F044FABDE8F09FD4
:1018800000BF00F00702064B19684FF6FF0319402E
:10189000044B0B4343EA0221014B196000BF704720
:1018A0000CED00E00000FA052DE9F04706464FF088
:1018B0000008002500270024A146012E31D0022E69
:1018C00056D0102E5FD132484468006800F0807016
:1018D00008B33048C4F38341475C04F4803078B1E6
:1018E0002B484068C0F340402B4911F8008004F4B5
:1018F000803040B12948B0FBF8F000FB07F502E06A
:10190000274807FB00F52248406800F48000B0F546
:10191000800F01D1A94603E068000321B0FBF1F973
:1019200032E01B48046A04F44070B0F5807F05D1B2
:1019300004F0020010B14FF4004918E004F44070C4
:10194000B0F5007F07D11248406A00F0020010B1E4
:1019500049F640490BE004F44070B0F5407F06D1F1
:101960000B48006800F4003008B14FF224490BE046
:1019700000F08CF906494968C1F38131491C4900DE
:10198000B0FBF1F900E000BF00BF4846BDE8F087BA
:1019900000100240CA460008DA46000800127A0029
:1019A00000093D00F8B5044600260025207800F027
:1019B000010000286BD000274348C06900F0805028
:1019C00070B900BF4048C06940F080503E49C861CE
:1019D0000846C06900F08050009000BF00BF01279A
:1019E0003A48006800F48070B0B93848006840F4A4
:1019F000807036490860FFF77FFE064606E0FFF775
:101A00007BFE801B642801D90320F8BD2F480068A5
:101A100000F480700028F2D02B48006A00F4407572
:101A20002DB3A08800F44070A84220D02648006A58
:101A300020F44075012026490860002008602248F3
:101A4000056205F0010090B1FFF756FE064608E07A
:101A5000FFF752FE801B41F28831884201D90320F2
:101A6000D3E71948006A00F002000028F0D01648B9
:101A7000006A20F440706168084313490862012F2E
:101A800004D10846C06920F08050C86100BF2078AA
:101A900000F00200022807D10B48406820F44040C3
:101AA000A168084308494860207800F01000102819
:101AB00007D10548406820F48000E16808430249E6
:101AC00048600020A1E700000010024000700040C4
:101AD0004004424270B504460D460CB9012070BD69
:101AE0005A48006800F00700A8420ED25748006824
:101AF00020F007002843554908600846006800F0B8
:101B00000700A84201D00120E9E7207800F0020098
:101B100002281DD1207800F00400042805D14C488B
:101B2000406840F4E0604A494860207800F00800CE
:101B3000082805D14648406840F460504449486050
:101B40004348406820F0F000A168084340494860DD
:101B5000207800F0010078B36068012806D13C4885
:101B6000006800F4003090B90120B8E760680228EE
:101B700006D13748006800F0007040B90120AEE798
:101B80003348006800F0020008B90120A7E7304898
:101B9000406820F00300616808432D494860FFF762
:101BA000ABFD064609E0FFF7A7FD801B41F2883137
:101BB000884202D9032092E707E02548406800F0F8
:101BC0000C006168B0EB810FEDD12048006800F097
:101BD0000700A8420ED91D48006820F007002843DE
:101BE0001A4908600846006800F00700A84201D0C2
:101BF000012074E7207800F00400042807D114487D
:101C0000406820F4E060E1680843114948602078AA
:101C100000F00800082808D10D48406820F4605002
:101C2000216940EAC1000A49486000F03FF80849CC
:101C30004968C1F30311074A515CC840064908606E
:101C400006480068FFF77EFD002048E700200240BC
:101C500000100240DC460008600000205800002010
:101C600001480068704700006000002000B5FFF7E1
:101C7000F7FF04494968C1F30221034A515CC84097
:101C800000BD000000100240EC46000800B5FFF760
:101C9000E7FF04494968C1F3C221034A515CC840C7
:101CA00000BD000000100240EC46000870B50021A5
:101CB0000022002400230020134D696801F00C0568
:101CC000F5B1042D02D0082D19D101E00F4819E01B
:101CD0000F4DC1F38346AB5D01F4803555B10A4D1C
:101CE0006D68C5F340450B4E725D084D5D43B5FB15
:101CF000F2F402E0084D03FB05F4204602E000BFC9
:101D0000024800BF00BF70BD0010024000127A0000
:101D1000B8460008C846000800093D00F8B504466A
:101D20000CB90120F8BD207800F00100002878D01F
:101D3000F848406800F00C0004280CD0F5484068D2
:101D400000F00C00082811D1F248406800F48030FF
:101D5000B0F5803F0AD1EF48006800F40030002859
:101D60005FD0606800285CD10120DBE700BF6068BD
:101D7000B0F5803F06D1E748006840F48030E5497F
:101D8000086028E0606858B9E248006820F48030B4
:101D9000E04908600846006820F4802008601AE0E6
:101DA0006068B0F5A02F0BD1DA48006840F48020BD
:101DB000D84908600846006840F4803008600AE0AE
:101DC000D448006820F48030D24908600846006892
:101DD00020F48020086000BF606888B1FFF78CFCA9
:101DE000054606E0FFF788FC401B642801D9032064
:101DF00098E7C848006800F400300028F2D010E0EE
:101E0000FFF77AFC054606E0FFF776FC401B6428E6
:101E100001D9032086E7BF48006800F4003000289D
:101E2000F2D1207800F00200022857D1B94840686A
:101E300000F00C0050B1B748406800F00C000828D2
:101E400018D1B448406800F4803098B9B1480068AF
:101E500000F0020020B12069012801D0012061E7D3
:101E6000AC48006820F0F800616940EAC100A94967
:101E7000086033E02069E8B10120A7490860FFF756
:101E80003BFC054606E0FFF737FC401B022801D962
:101E9000032047E79F48006800F002000028F2D0C6
:101EA0009C48006820F0F800616940EAC100994947
:101EB000086013E0002098490860FFF71DFC054604
:101EC00006E0FFF719FC401B022801D9032029E78F
:101ED0009048006800F002000028F2D1207800F05D
:101EE000080008282DD1A069B8B101208B490860ED
:101EF000FFF702FC054606E0FFF7FEFB401B022849
:101F000001D903200EE78348406A00F00200002850
:101F1000F2D0012001F03AFB13E000207F49086075
:101F2000FFF7EAFB054606E0FFF7E6FB401B022849
:101F300001D90320F6E67748406A00F00200002845
:101F4000F2D1207800F00400042873D100277148F2
:101F5000C06900F0805070B900BF6E48C06940F0A1
:101F600080506C49C8610846C06900F080500090FC
:101F700000BF00BF01276A48006800F48070B0B954
:101F80006748006840F4807065490860FFF7B4FB5B
:101F9000054606E0FFF7B0FB401B642801D903208B
:101FA000C0E65F48006800F480700028F2D000BFEF
:101FB000E068012806D15748006A40F00100554901
:101FC000086227E0E06858B95248006A20F0010032
:101FD000504908620846006A20F00400086219E0CF
:101FE000E06805280BD14B48006A40F004004949DD
:101FF00008620846006A40F0010008620AE04548AD
:10200000006A20F00100434908620846006A20F097
:102010000400086200BFE068A0B1FFF76DFB054651
:1020200009E0FFF769FB401B41F28831884202D981
:10203000032077E622E03748006A00F0020000281B
:10204000EFD012E0FFF758FB054608E0FFF754FB1E
:10205000401B41F28831884201D9032062E62D48B5
:10206000006A00F002000028F0D1012F05D12948B4
:10207000C06920F080502749C86100BFE069C8B33B
:102080002448406800F00C00082860D0E06902286D
:1020900048D1002020490866FFF72EFB054606E0E0
:1020A000FFF72AFB401B022801D903203AE6194812
:1020B000006800F000700028F2D1206AB0F5803F7F
:1020C00007D11448406820F40030A1680843114942
:1020D0004860D4E9080108430E49496821F47411A5
:1020E00008430C49486001200B490866FFF704FBD0
:1020F000054607E03DE0FFF7FFFA401B022801D943
:1021000003200FE60348006800F000700028F2D0BA
:102110002FE00000001002400000424280044242D2
:1021200000700040002014490866FFF7E5FA0546F4
:1021300006E0FFF7E1FA401B022801D90320F1E590
:102140000E48006800F000700028F2D111E0E0694C
:10215000012800D1E6E50948466806F48031206A86
:10216000814204D106F47011606A814201D00120DD
:10217000D8E50020D6E500000000424200100240F1
:1021800070B504462546681EB0F1807F01D301205A
:102190000FE0681E4FF0E02148610F214FF0FF3043
:1021A00001F0B0FD00204FF0E021886107200861B8
:1021B000002070BD7047704730B502460B4600BF27
:1021C00092F83C00012801D1022030BD012082F8A4
:1021D0003C0000BF022082F83D001068446810688F
:1021E000816824F070041868044310684460104D3E
:1021F0001068A8420BD01068B0F1804F07D00D4D89
:102200001068A84203D00C4D1068A84205D121F0F7
:1022100080015868014310688160012082F83D0008
:1022200000BF002082F83C0000BF00BFCDE70000E7
:10223000002C0140000400400008004010B5044696
:102240000CB9012010BD94F83D0028B9002084F895
:102250003C00204600F026F8022084F83D00211DB5
:10226000206801F0FFF9012084F8460000BF84F8DF
:102270003E0001213F2001554020015541200155DC
:1022800000BF00BF012084F84200432001554420D4
:1022900001554520015500BF012084F83D00002074
:1022A000D0E7000038B504462068B0F1804F16D161
:1022B00000BF1848C06940F001001649C8610846CF
:1022C000C06900F00100009000BF00BF002211466D
:1022D0001C20FFF797FA1C20FFF784FA19E00E493B
:1022E0002068884215D100BF0A48C06940F002004A
:1022F0000849C8610846C06900F00200009000BFAC
:1023000000BF002211461D20FFF77CFA1D20FFF7B9
:1023100069FA38BD0010024000040040014691F8FF
:102320003D00012801D001207047022081F83D00C6
:102330000868C06840F001000B68D860124B08685C
:1023400098420BD00868B0F1804F07D00F4B086857
:10235000984203D00E4B086898420CD108688068F8
:1023600000F00702062A0CD00868006840F001005F
:102370000B68186005E00868006840F001000B6811
:1023800018600020D0E70000002C0140000400404D
:10239000000800402DE9F04104460D46002700BF2B
:1023A00094F83C00012802D10220BDE8F081012010
:1023B00084F83C0000BF022084F83D002068866855
:1023C00026F0770626F47F46206886602868502825
:1023D00033D00CDC202850D004DC00284BD010284F
:1023E00051D149E0302849D040284CD139E060280B
:1023F0002DD0702807D0B0F5805F03D0B0F5005F16
:1024000041D10DE041E0D5E902136A68206801F08E
:102410007CF92068866846F077062068866034E09C
:10242000D5E902136A68206801F06FF920688068B6
:1024300040F480402168886027E0EA686968206885
:1024400001F034FA5021206801F06AF91DE0EA68D1
:102450006968206801F03DFA6021206801F060F9A8
:1024600013E0EA686968206801F020FA40212068DA
:1024700001F056F909E000BF00BF00BF29682068DD
:1024800001F04EF901E0012700BF00BF012084F8F0
:102490003D0000BF002084F83C0000BF384684E7C0
:1024A0002DE9F04104460D4614B90120BDE8F08144
:1024B00094F83D0028B9002084F83C00204600F044
:1024C00051F8022084F83D002068806844F207013A
:1024D000884321688860211D206801F0C3F82068C6
:1024E000D0F80880206886692068076A286840EA72
:1024F000080840F203308643A969A86840EA012031
:10250000064340F60C4086434FF2F0008643E969EB
:10251000E86840EA0120064328690001296A40EA88
:102520000130064327F022076969686840EA011014
:1025300007432068C0F80880206886612068076229
:10254000012084F8460084F83E0001213F20015517
:10255000012084F8420043200155012084F83D0009
:102560000020A3E710B586B0044600200290039037
:102570000490059015492068884224D100BF144872
:10258000806940F40060124988610846806900F45F
:102590000060019000BF00BF00BF0846806940F0A6
:1025A000040088610846806900F00400019000BFC3
:1025B00000BF4FF44070029000200390049002A9E5
:1025C0000448FEF703FF06B010BD0000002C0140D8
:1025D00000100240000801402DE9F04304460D467A
:1025E00094F83E603F20075D94F84280432010F845
:1025F00004906DB9012E02D1B8F1010F02D0012073
:10260000BDE8F083022084F83E0084F8420025E013
:10261000042D0CD1012F02D1B9F1010F01D00120FD
:10262000EEE702213F2001554320015516E0012E1F
:1026300007D1012F05D1B8F1010F02D1B9F1010F76
:1026400001D00120DCE7022084F83E0002213F2077
:102650000155022084F842004320015515B1042D94
:102660000CD105E001220021206801F03DF810E0C6
:1026700001220421206801F037F80AE0012200213C
:10268000206801F031F801220421206801F02CF8C3
:1026900000BF00BF2068006840F0010021680860AA
:1026A0000020ADE7704770B504462068C568206813
:1026B000066906F00200022819D105F0020002287E
:1026C00015D1401F216808610120207720688069AA
:1026D00000F0030018B12046FFF7E4FF05E02046B4
:1026E00000F0D0F8204600F084F90020207706F0B2
:1026F0000400042819D105F00400042815D1C043B2
:1027000021680861022020772068806900F4407009
:1027100018B12046FFF7C6FF05E0204600F0B2F8EA
:10272000204600F066F90020207706F0080008280F
:1027300019D105F00800082815D1C04321680861A7
:10274000042020772068C06900F0030018B12046FB
:10275000FFF7A8FF05E0204600F094F8204600F0BF
:1027600048F90020207706F01000102819D105F054
:102770001000102815D1C043216808610820207777
:102780002068C06900F4407018B12046FFF78AFF46
:1027900005E0204600F076F8204600F02AF90020F7
:1027A000207706F0010048B105F0010030B16FF06C
:1027B000010021680861204600F086F906F08000DB
:1027C000802809D105F08000802805D1C043216808
:1027D00008612046FFF7EEFC06F04000402809D1D2
:1027E00005F04000402805D1C0432168086120461B
:1027F00000F07CFA06F02000202809D105F0200026
:10280000202805D1C043216808612046FFF7D3FC8A
:1028100070BD000010B586B0044600200290039001
:10282000049005902068B0F1804F22D100BF12487B
:10283000806940F00400104988610846806900F012
:102840000400019000BF00BF4FF40040029002203E
:102850000390059002A90948FEF7B8FD00BF08499A
:10286000486820F4407040F0E06040F480704860B8
:1028700000BF06B010BD000000100240000801407B
:102880000000014070472DE9F04104460D46164610
:10289000002700BF94F83C00012802D10220BDE8C7
:1028A000F081012084F83C0000BF36B1042E1BD01B
:1028B000082E31D00C2E5ED145E02946206800F06C
:1028C00039FF2068806940F008002168886120682D
:1028D000806920F004002168886120688069296986
:1028E00008432168886148E02946206800F052FFCB
:1028F0002068806940F400602168886120688069F0
:1029000020F480602168886120688069296940EA34
:1029100001202168886130E02946206800F06EFFC0
:102920002068C06940F008002168C8612068C0695B
:1029300020F004002168C8612068C0692969084343
:102940002168C86119E02946206800F08BFF2068E3
:10295000C06940F400602168C8612068C06920F443
:1029600080602168C8612068C069296940EA012047
:102970002168C86101E0012700BF00BF00BF00203F
:1029800084F83C0000BF384689E710B504460CB90E
:10299000012010BD94F83D0028B9002084F83C00C7
:1029A000204600F025F8022084F83D00211D206813
:1029B00000F058FE012084F8460000BF84F83E0075
:1029C00001213F200155402001554120015500BF04
:1029D00000BF012084F842004320015544200155E6
:1029E0004520015500BF012084F83D000020D0E7BC
:1029F0007047704770B504460D4615B994F83E000F
:102A00000BE0042D02D13F20005D06E0082D02D12D
:102A10004020005D01E04120005D012801D001203F
:102A200070BD1DB9022084F83E000EE0042D03D1D4
:102A300002213F20015508E0082D03D1022140204A
:102A4000015502E00221412001550122294620685A
:102A500000F04AFE19492068884201D1012000E0B7
:102A6000002028B12068406C40F400402168486490
:102A70001249206888420BD02068B0F1804F07D0FF
:102A80000F492068884203D00E49206888420CD143
:102A90002068806800F00706062E0CD020680068C9
:102AA00040F001002168086005E02068006840F0FF
:102AB0000100216808600020B2E70000002C0140FE
:102AC00000040040000800402DE9F04104466B4836
:102AD00084427DD16A480068406A00B26949088032
:102AE0000020674909684862674908606548B0F98D
:102AF0000000FDF74DFD0546644801682846FDF7D6
:102B000035FB6249086062480068624908605F48B6
:102B100001685D480068FDF77BFB5D490860084679
:102B200001685D480068FDF721FB5B490860594872
:102B3000016857480068FDF76BFB07465748016876
:102B40003846FDF76BFB054653480168544800685A
:102B5000FDF764FB07464E48016852480068FDF7E0
:102B60005DFB80463946FDF701FB06462946FDF729
:102B7000FDFA4D4908604D494B480068FDF74CFD92
:102B800002D24A4848490860494947480068FDF769
:102B900039FD02D246484449086043480068454927
:102BA00008603848B0F90000FDF7F2FC42490860BF
:102BB00042480068424908603F4801683D48006853
:102BC000FDF726FB3D490860084601683D4800E0E6
:102BD00052E00068FDF7CAFA3A49086038480168CF
:102BE00036480068FDF714FB074637480168384649
:102BF000FDF714FB05463348016834480068FDF7CB
:102C00000DFB07462D48016831480068FDF706FBBB
:102C100080463946FDF7AAFA06462946FDF7A6FA88
:102C20002C4908602C492B480068FDF7F5FC02D2BE
:102C3000294828490860294926480068FDF7E2FC30
:102C400002D226482349086022480068FDF7A9FC03
:102C500045B2284601F008FD2148018821A001F075
:102C600039F8214800884FF4B471484340F6FF71A9
:102C7000B0FBF1F01A490880BDE8F0816C0100203A
:102C8000DC00002000000020380000203C00002074
:102C9000300000202C000020340000204C000020D8
:102CA0004800002044000020400000200000DC42DA
:102CB0000000DCC214000020180000200C000020DE
:102CC0000800002010000020280000202400002020
:102CD000200000201C0000200000F0410000F0C196
:102CE0000600002025640A00040000207047704799
:102CF000704700002DE9F84F0446206805682068F9
:102D0000C668206847694FF00009CA4605F00F09F8
:102D1000B9F1000F0AD105F0200038B106F020000B
:102D200020B1204600F039FEBDE8F88FB9F1000F60
:102D30007BD007F0010018B906F49070002874D019
:102D400005F0010030B106F4807018B1606C40F0FD
:102D50000100606405F0040030B107F0010018B113
:102D6000606C40F00200606405F0020030B107F0D2
:102D7000010018B1606C40F00400606405F00800C8
:102D800048B106F0200010B907F0010018B1606CDE
:102D900040F008006064606C002845D005F0200019
:102DA00028B106F0200010B1204600F0F6FD2068A2
:102DB0004069C0F3801A606C00F0080010B9BAF1E5
:102DC000000F2CD0204600F0A2FD2068406900F0E2
:102DD000400000B300BF00BF2168143151E8001F5C
:102DE00021F040002168143141E80002002AF3D1AB
:102DF00000BFE06B50B17748E16B4863E06BFEF7D2
:102E00003DF988B1E06B416B88470DE02046FFF744
:102E10006FFF09E009E02046FFF76AFF04E0204663
:102E2000FFF766FF002060647EE7206B012877D102
:102E300005F01000002873D006F010000028FAD02A
:102E400000BF002000902068006800902068406863
:102E5000009000BF00BF2068406900F040000028DB
:102E60005FD0E06B006840681FFA80F8B8F1000F8F
:102E700055D0A08D404552DDA4F82E80E06B8069CE
:102E8000202843D000BF00BF21680C3151E8001F4B
:102E900021F4807021680C3141E80002002AF3D14E
:102EA00000BF00BF00BF2168143151E8001F21F0AE
:102EB00001002168143141E80002002AF3D100BF6B
:102EC00000BF00BF2168143151E8001F21F040000D
:102ED0002168143141E80002002AF3D100BF20200C
:102EE00084F842000020206300BF00BF21680C313D
:102EF00051E8001F21F0100021680C3141E8000268
:102F0000002AF3D100BFE06BFEF78CF8022060636B
:102F1000A08DE28D801A81B22046FFF7E8FE03E71C
:102F200042E0A08DE18D401A1FFA80F8E08DD0B309
:102F3000B8F1000F37D000BF00BF21680C3151E855
:102F4000001F21F4907021680C3141E80002002A32
:102F5000F3D100BF00BF00BF2168143151E8001F4A
:102F600021F001002168143141E80002002AF3D168
:102F700000BF202084F842000020206300BF00BF73
:102F800021680C3151E8001F21F0100021680C313C
:102F900041E80002002AF3D100BF022060634146ED
:102FA0002046FFF7A4FEBFE605F0800030B106F032
:102FB000800018B1204600F00DFEB5E605F0400097
:102FC00030B106F0400018B1204600F0D6FCABE668
:102FD00000BFA9E6FB38000810B504460CB9012073
:102FE00010BDA06900B100E000BF94F8410028B90D
:102FF000002084F84000204600F02AF8242084F8BD
:1030000041002068C06820F400502168C860204654
:1030100000F042FD2068006920F4904021680861BA
:103020002068406920F02A00216848612068C06853
:1030300040F400502168C86000206064202084F8BB
:10304000410084F842000020606300BFC8E7000030
:1030500010B586B0044600200290039004900590BD
:103060002E492068884257D100BF2D48806940F41E
:1030700080402B4988610846806900F480400190B7
:1030800000BF00BF00BF0846806940F008008861AB
:103090000846806900F00800019000BF00BF402092
:1030A0000290022003900320059002A91D48FEF71C
:1030B0008DF98020029000200390049002A9194805
:1030C000FEF784F900BF1849486840F0E06040F01E
:1030D0000400486000BF154815490860102048608A
:1030E0000021134881608021C1600021016141619C
:1030F0008161C161FEF7E8F808B1FDF794FC00BFFB
:103100000B48A063446200BF002211462520FEF751
:1031100079FB2520FEF766FB06B010BD00380140A4
:1031200000100240000C0140000001404400024039
:10313000FC01002070B504460D46164694F8420086
:1031400020280BD105B10EB9012070BD00202063ED
:1031500032462946204600F01DFDF6E70220F4E73E
:1031600010B50446074884420AD107480078303831
:1031700040B206490870012203490248FFF7DAFF0E
:1031800010BD0000B401002002000020500000200B
:103190002DE9F84F04460E46174699464FF0000AAF
:1031A00094F84100202850D106B117B90120BDE89C
:1031B000F88F00206064212084F84100FEF79CFA1B
:1031C0008246A784E784A068B0F5805F04D12069B7
:1031D00010B90025B04602E035464FF000081EE069
:1031E0005346002280212046CDF8009000F022FDB9
:1031F00020B1202084F841000320D8E745B9B8F871
:103200000000C0F308002168486008F1020803E0EC
:103210002878216848606D1CE08C401EE084E08CBA
:103220000028DDD15346002240212046CDF80090F1
:1032300000F000FD20B1202084F841000320B6E713
:10324000202084F841000020B1E70220AFE770475A
:1032500000BFFEE70EB500200090019002901248DA
:103260001249086000211148816001210173002189
:1032700001754FF46021C16100200C4948600121B3
:103280000A480161FDF714FD08B1FDF7CCFB0020F1
:10329000009001200190029069460448FDF754FC1B
:1032A00008B1FDF7C0FB0EBD0024014068000020FE
:1032B00008B500BF0A48406940F00100084948616C
:1032C0000846406900F00100009000BF00BF0022E6
:1032D00011460E20FEF796FA0E20FEF783FA08BD7F
:1032E0000010024000B585B00020019002900390CC
:1032F000049000BF2D48806940F010002B49886180
:103300000846806900F01000009000BF00BF00BFB9
:103310000846806940F0200088610846806900F016
:103320002000009000BF00BF00BF0846806940F049
:10333000040088610846806900F00400009000BF26
:1033400000BF00BF0846806940F008008861084659
:10335000806900F00800009000BF00BF00224FF419
:1033600000511348FEF7C2F900224FF440511148B2
:10337000FEF7BCF94FF400500190012002900020AC
:1033800003900220049001A90948FEF71FF84FF4AA
:10339000405001900120029002200390049001A966
:1033A0000448FEF713F805B000BD0000001002400D
:1033B00000100140000C014000B58BB0242102A890
:1033C000FCF7C9FE002000900190184818490860D9
:1033D000002048600021164881604FF6FF71C160EF
:1033E000002101614161816103200290002003906E
:1033F000012004900020059006900790012008907D
:10340000002009900A9002A90948FFF749F808B17D
:10341000FDF709FB00200090019069460448FEF783
:10342000CBFE08B1FDF7FFFA0BB000BD002C014048
:10343000DC00002000B58DB0002009900A900B90B0
:103440000C90079008901C216846FCF784FE4FF012
:103450008040204908604720486000211D48816065
:103460006321C1600021016180218161FEF7E6FED8
:1034700008B1FDF7D8FA4FF48050099009A9154812
:10348000FEF788FF08B1FDF7CEFA1248FFF77DFA84
:1034900008B1FDF7C8FA00200790089007A90D4869
:1034A000FEF78AFE08B1FDF7BEFA602000901D20ED
:1034B0000190002002900490002269460548FFF721
:1034C000E2F908B1FDF7AFFA0248FFF7A3F90DB032
:1034D00000BD00002401002000B587B0002003904B
:1034E00004900590069001900290154815490860D7
:1034F00040F2CF20486000211248816040F2E7315D
:10350000C160002101618161FEF798FE08B1FDF7FD
:103510008AFA4FF48050039003A90A48FEF73AFF55
:1035200008B1FDF780FA00200190029001A905483A
:10353000FEF742FE08B1FDF776FA07B000BD0000C5
:10354000000400406C01002010B50B480B490860D6
:103550004FF4E1304860002108488160C16001619A
:103560000C21416100218161C161FFF735FD08B186
:10357000FDF759FA10BD000000380140B4010020E9
:1035800000BFFEE700BFFEE77047000008B508492E
:103590000968C9084FF47A72B1FBF2F14143009116
:1035A00000BF00BF00994A1E00920029F9D108BD52
:1035B00060000020704710B5FEF7A4F810BD00B5FC
:1035C00093B0282109A8FCF7C6FD142104A8FCF734
:1035D000C2FD00200090019002900390012009900C
:1035E00000040A9000200B9001200D900220109002
:1035F000C10311914FF4E011129109A8FEF78EFB5F
:1036000008B1FDF710FA0F20049002200590002069
:1036100006904FF48060079000200890022104A8D3
:10362000FEF758FA08B1FDF7FEF90220009080037A
:1036300002906846FEF7B6F908B1FDF7F4F913B049
:1036400000BD704710B50248FFF72DF810BD00000F
:103650002401002010B50248FFF725F810BD000036
:103660006C01002010B502681C4B984208D0B0F1E4
:10367000804F05D01A4B984202D01A4B984203D182
:1036800022F070024B681A43144B984208D0B0F1F4
:10369000804F05D0124B984202D0124B984203D172
:1036A00022F44072CB681A4322F080034C6943EA4B
:1036B000040202608B68C3620B688362074B984206
:1036C00001D10B69036301234361036903F0010323
:1036D0001BB1036923F00103036110BD002C0140FD
:1036E000000400400008004030B501F01F0501242F
:1036F00004FA05F3046A9C430462046A01F01F059E
:1037000002FA05F52C43046230BD30B50C468168E1
:1037100021F47F4142EA032525432943816030BDDE
:103720000A46816821F0700142F007031943816065
:103730007047000030B5026A056A25F00105056290
:103740004368846924F0700424F003040D682C435A
:1037500022F002028D682A430D4DA84206D100BF17
:1037600022F00802CD682A4322F00402084DA84244
:1037700007D123F4807323F400734D692B438D69C3
:103780002B43436084614D684563026230BD000095
:10379000002C014030B5026A056A25F0100505626B
:1037A0004368846924F4E04424F440740D6844EAD6
:1037B000052422F020028D6842EA05120E4DA8422F
:1037C00007D100BF22F08002CD6842EA051222F044
:1037D0004002094DA84209D123F4806323F4006319
:1037E0004D6943EA85038D6943EA8503436084613B
:1037F0004D688563026230BD002C014030B5026A1D
:10380000056A25F4807505624368C46924F0700474
:1038100024F003040D682C4322F400728D6842EA00
:1038200005220F4DA84207D100BF22F40062CD68E7
:1038300042EA052222F48062094DA84209D123F40C
:10384000805323F400534D6943EA05138D6943EA1D
:1038500005134360C4614D68C563026230BD00005A
:10386000002C014030B5036A056A25F480550562D5
:103870004468C26922F4E04222F440720D6842EAD0
:10388000052223F400538D6843EA0533064DA84210
:1038900004D124F480444D6944EA85144460C26133
:1038A0004D680564036230BD002C014030B50B4605
:1038B0001446026A056A25F001050562816921F056
:1038C000F00141EA041122F00A021A438161026206
:1038D00030BD30B50B461446026A056A25F0100566
:1038E0000562816921F4704141EA043122F0A002AD
:1038F00042EA03128161026230BD70B505466C6A0E
:103900000020E085E0842046FFF7F2F970BD00BF9B
:1039100000BF02680C3252E8002F22F49071026856
:103920000C3242E80013002BF3D100BF00BF00BFF0
:103930000268143252E8002F22F0010102681432AA
:1039400042E80013002BF3D100BF016B01290ED117
:1039500000BF00BF02680C3252E8002F22F01001B5
:1039600002680C3242E80013002BF3D100BF202183
:1039700080F8421000210163704710B504462068AA
:10398000C06820F040002168C860202084F8410011
:103990002046FFF75CFC002010BDF8B5044694F803
:1039A0004200222875D1A068B0F5805F0CD1206953
:1039B00050B90025A66A20684068C0F3080030802E
:1039C000A06A801CA06215E0A56A0026A068B0F578
:1039D000805F03D0A06828B9206918B920684068C2
:1039E000287004E02068406800F07F002870A06A1A
:1039F000401CA062E08D401E80B2E085002846D1C8
:103A00002068C06820F020002168C8602068C06875
:103A100020F480702168C8602068406920F00100AF
:103A200021684861202084F8420000206063206BF8
:103A3000012826D10020206300BF00BF21680C317F
:103A400051E8001F21F0100021680C3141E800020C
:103A5000002AF3D100BF2068006800F01000102891
:103A60000AD100BF00200090206800680090206804
:103A70004068009000BF00BFA18D2046FFF737F9D6
:103A800002E02046FFF76CFB0020F8BD01E00020BB
:103A9000FBE70220F9E7000070B5044621680969D8
:103AA00021F44051E2681143226811612269A16842
:103AB0001143626941EA02052168C96841F20C625A
:103AC000914329432268D1602168496921F44071FA
:103AD000A2691143226851612D4A2168914202D1A5
:103AE000FEF7D4F801E0FEF7C1F800EBC00101EBEE
:103AF000001162689200B1FBF2F100EBC00202EB30
:103B0000001263689B00B2FBF3F26423B2FBF3F292
:103B100002EBC20303EB0212A1EB8201322202EBA1
:103B200001116422B1FBF2F101F0F00100EBC002DF
:103B300002EB001263689B00B2FBF3F26423B2FB5A
:103B4000F3F201EB021200EBC00101EB001163681C
:103B50009B00B1FBF3F100EBC00303EB00136668BD
:103B6000B600B3FBF6F36426B3FBF6F303EBC30630
:103B700006EB0313A1EB8301322303EB0111642352
:103B8000B1FBF3F101F00F0111442268916070BDA7
:103B90000038014010B5034699629A85DA85002005
:103BA0005864222083F84200186928B11868C06858
:103BB00040F480701C68E0601868406940F00100C3
:103BC0001C6860611868C06840F020001C68E060F4
:103BD000002010BD014691F84100212828D18868B5
:103BE000B0F5805F0BD1086948B90A6A1088C0F344
:103BF00008000B685860086A801C086205E00B6AC0
:103C0000581C086218780B685860C88C401E80B237
:103C1000C88458B90868C06820F080000B68D86074
:103C20000868C06840F040000B68D860002070470A
:103C30000220FCE72DE9F84304460D461746984656
:103C4000089E31E0701C70B3FDF756FDA0EB080034
:103C5000B04200D816B90320BDE8F8832068C068D8
:103C600000F00400F8B1802D1ED0402D1CD020683B
:103C70000068C0F3C000B0B100BF00200090206811
:103C80000068009020684068009000BF00BF204698
:103C9000FFF73DFE0820606400BF002084F840006C
:103CA00000BF0120D8E7FFE7206800682840A8424D
:103CB00001D1012000E00020B842C3D00020CBE7B2
:103CC00010B50248FFF716F810BD0000B40100203F
:103CD00000BFFEE70FB4054B10B503A9044A0298D4
:103CE00000F0F6F810BC5DF814FB0000D9450008A0
:103CF0006400002002480068C0F302207047000002
:103D00000CED00E010B5002804DB0A07130E054A8D
:103D1000135406E00A07140E034A00F00F031B1F9A
:103D2000D45410BD00E400E018ED00E002E008C843
:103D3000121F08C1002AFAD170477047002001E025
:103D400001C1121F002AFBD1704700002DE9FF5F5F
:103D500082B00021DDE90430020DDDF840B00343FC
:103D600018D044F61050A2F2FF32424315141198B5
:103D700001281FD0A5EB0B00401C5FEA000A4FF0A2
:103D800000064E4FDFF83891B046504615D5CAF1BF
:103D9000000413E0119801244AA3012801D16FEA1D
:103DA0000B010298119AC0E90031C0E9024206B045
:103DB000BDE8F09FCBF10000DFE704460021404A58
:103DC000491842EB0450CDE9001012E0E00707D09B
:103DD00032463B4640464946FCF7F9FA804689465A
:103DE00032463B4610461946FCF7F1FA06460F46A6
:103DF0006410002CEAD1DDE90401DDE90023BAF109
:103E0000000F06DAFCF7E3FA42464B46FCF7DFFA0E
:103E100005E0FCF74EFB42464B46FCF74AFB0446E6
:103E20000E460022284BFCF7D5FB03D84FF0FF309D
:103E3000014607E00022254B20463146FCF720FAD8
:103E4000FCF7F0FC102409E0002C0ADB0A22002316
:103E5000FCF702FC039B30321A55641E50EA010243
:103E6000F2D1641C039AC4F111031444119A012A7B
:103E700003D0012208430DD10AE0084304D00020FA
:103E80004FF0110B119072E7A3EB0B056D1E0DE0C7
:103E90005B4504DD4FF0000205F1010504E003DAA3
:103EA0004FF00002A5F10105002AECD0029811990B
:103EB000C0E90231C0E9004579E700000000144084
:103EC0000000F03F300000000000F0430000E03F41
:103ED0002DE9FF4F95B09A46884606460025EEE14B
:103EE000252877D100242746F94A0121039400E0D0
:103EF000044316F8013F203B01FA03F01042F7D1CA
:103F000030782A2811D06FF02F033078A0F13002DA
:103F1000092A16D8039A44F0020402EB820203EB4A
:103F200042021044761C0390EFE758F8042B0392EA
:103F3000002A03DA504244F40054039044F002048F
:103F4000761C30782E2816D116F8010F44F00404A0
:103F50002A280DD06FF02F023078A0F13003092B02
:103F600009D807EB870302EB4303C718761CF3E776
:103F700058F8047B761C30786C280FD006DC4C286F
:103F800017D068280DD06A2814D104E0742810D006
:103F90007A280FD10DE044F400140AE044F48014B0
:103FA00001E044F440147278824202D104F5801496
:103FB000761C761C307866280BD013DC582877D016
:103FC00009DC002875D04528F6D04628F4D04728CB
:103FD0001AD193E118E0632835D0642879D0652898
:103FE00012D18BE1702873D008DC6728F1D06928E2
:103FF0006FD06E280DD06F2806D1ACE073282CD07E
:10400000752874D0782853D05246179990476D1C64
:1040100054E1C4F30250022809D003280DD0D8F887
:10402000001004280DD00D6008F1040846E1D8F80E
:104030000010EA17C1E90052F6E7D8F800100D8029
:10404000F2E70D70F0E718F8041B8DF8001000205F
:104050008DF80100EB46012003E058F804BB4FF057
:10406000FF3061074FF0000102D40DE009F10101BA
:104070008946B9420FDA8145F8DB1BF8091000299F
:10408000F4D108E009F1010189468142FADB1BF80D
:1040900009100029F6D103985346A0EB09072146E1
:1040A0003846179A00F080FA284400EB090507E02B
:1040B00044E008E10DE01BF8010B524617999047C8
:1040C000B9F10109F7D2534621463846179AF2E072
:1040D00039E00A21C4F302524FF0000B0091022A8A
:1040E00006D058F8040BC117032A09D00AE023E0D0
:1040F00008F1070020F00702F2E80201904605E00F
:1041000000B2C117042A01D140B2C117002906DA52
:104110000A460021404261EB02012D2202E0220505
:1041200004D52B228DF80420012203E0E20701D000
:104130002022F7E7914657E00A2100E010214FF0D6
:10414000000B00910BE010214FF0000B44F0040431
:104150000827009103E008204FF0000B0090C4F303
:104160000252022A05D058F8040B0021032A08D075
:1041700008E008F1070020F00702F2E8020190468B
:1041800003E080B2042A00D1C0B24FF00009220738
:104190002AD53278702A07D0DDF800C08CF0100CD8
:1041A0005CEA0B0C05D00EE040228DF804200122C1
:1041B00008E050EA010306D030238DF804308DF872
:1041C000052002229146009B83F0080353EA0B036B
:1041D0000AD150EA010201D1620705D530228DF8DB
:1041E00004204FF001097F1E3278582A04D039A2EA
:1041F0000C920CAA02920BE03BA2F9E75B46009AF4
:10420000FCF72AFA0C9B9B5C029A521E02921370D6
:1042100050EA0102F2D1029804A9081A00F1200B19
:10422000600702D524F4803400E001275F4502DDF9
:10423000A7EB0B0000E0002000EB0B0100900398BF
:104240004944401A0390E00306D453462146179A86
:10425000039800F0A9F90544002706E001A852469A
:10426000C05D179990476D1C7F1C4F45F6DBE0033E
:104270000CD553462146179A039800F095F905444A
:1042800004E030205246179990476D1C0099481E53
:1042900000900029F5DC08E0029802995246007867
:1042A000491C0291179990476D1CBBF10001ABF1BD
:1042B000010BF1DC5BE100F065F90544761C307818
:1042C00000287FF40DAE19B02846BDE8F08F00003D
:1042D00009280100303132333435363738396162DC
:1042E00063646566000000003031323334353637A0
:1042F000383941424344454600000000600700D47D
:10430000062708F1070020F00700F0E802238046A6
:1043100003F0004C5FEA0C0001D097A009E02005F3
:1043200001D596A005E0E00701D095A001E0AFF22D
:104330004C001390307823F0004365280CD006DC45
:10434000452809D046281DD047287FD13BE0662864
:1043500018D067287AD136E00021112F01DB112017
:1043600000E0781CCDE9000104A90CA8FFF7EEFCE1
:10437000DDE90D010C9A4FF0000B07F101091092D5
:1043800000914EE04FF000400097CDE9011004A9E4
:104390000CA8FFF7DBFCDDE90D020C9B0F994FF039
:1043A000000B91461093009211B9791C00EB0109A2
:1043B000B7EB090003D4C0F1FF3B07F10109A9EBFA
:1043C0000700019042E0012F00DA01270021112FA0
:1043D00001DD112000E03846CDE9000104A90CA858
:1043E000FFF7B4FCDDE90D010C9A00914FF0000BD2
:1043F000B946109221070FD4009A4A4503DA914634
:1044000001E0A9F10109B9F1010F05DD109AA9F147
:104410000101515C3029F4D0B84202DA10F1040FE6
:1044200003DA0121CDE9011010E0002803DC834408
:10443000A9EB000102E0411C494500DD8946A0EBE3
:104440000B00401C01904FF000400290200705D463
:104450000198484502DB4FF0FF30019000208DF8B5
:104460004B0002980DF14B07B0F1004F25D0022010
:104470000C902B200D90029800280CDA40420290FC
:104480002D200D9007E00A210298FCF7CFF830317B
:10449000029007F8011D0C99481E0C900029F2DCCF
:1044A00002980028EFD1791E0D980870307800F03E
:1044B000200040F0450007F8020D11A8C01BC01DE8
:1044C00002901398007800B1012000EB09010198D7
:1044D00001EBE071029801440398401A401E0390DA
:1044E000E00306D453462146179A039800F05CF87F
:1044F00005441398007818B15246179990476D1CDF
:10450000E00323D553462146179A039800F04CF850
:1045100005441BE0BBF1000F07DB0098584504DDA4
:104520001098179910F80B0001E0179930205246A7
:10453000904701980BF1010B401E05F10105019018
:1045400004D12E205246179990476D1CB9F10001F5
:10455000A9F10109DEDC05E017F8010B52461799B5
:1045600090476D1C0299481E02900029F4DC5346C6
:104570002146179A03989EE62D0000002B000000AC
:10458000200000002DE9F041044600251E46174694
:10459000880404D405E039462020B0476D1C641E11
:1045A000F9D52846BDE8F0812DE9F0410446002503
:1045B0001E469046C80301D5302700E02027880416
:1045C00004D505E041463846B0476D1C641EF9D558
:1045D0002846BDE8F081000013B50C464FF0FF33CC
:1045E000012269460248FEF7D3FD00981CBD000079
:1045F000B4010020FDF792F8FEF7E1FFFEF772FE2E
:10460000FEF756FEFEF7D8FEFEF714FFFEF764FF36
:10461000FEF79AFFFEF71EFE0C48FCF707FA012290
:104620000B490A48FCF73EFC3C210A48FDF7D4FF41
:1046300000210948FEF7DEF9012208490848FEF783
:1046400079FD0848FDF76AFE00BFFEE7680000201C
:1046500004000020DC0000202401002002000020D3
:10466000B40100206C01002010B50446002C0EDBC4
:10467000012251030E48FDF739F800224FF4805112
:104680000B48FDF733F80B48006844630EE0002246
:104690004FF400510648FDF729F8012211030448A0
:1046A000FDF724F8604203490968486310BD000023
:1046B000000C01402401002002030405060708093C
:1046C0000A0B0C0D0E0F1010010202030405060761
:1046D00008090A0B0C0D0E0F10100102000000005B
:1046E00000000000010203040607080900000000A2
:1046F00001020304144700080000002068000000C5
:104700002C3D00087C47000868000020D805000008
:104710003C3D000800000000000000000000000018
:104720000000000000000000000000000000000089
:1047300000000000CDCCCC3ECDCC4C3D00000000B4
:104740000000000000000000000000000000000069
:104750000000000000000000CDCC4C3E0000000036
:104760000000000000000000000000001000000039
:0C4770000100000000127A0000000000B0
:04000005080000ED02
:00000001FF
